{
  "contractName": "Calculator",
  "abi": [
    {
      "inputs": [
        {
          "internalType": "uint256",
          "name": "a",
          "type": "uint256"
        },
        {
          "internalType": "uint256",
          "name": "b",
          "type": "uint256"
        }
      ],
      "name": "add",
      "outputs": [],
      "stateMutability": "nonpayable",
      "type": "function"
    },
    {
      "inputs": [
        {
          "internalType": "uint256",
          "name": "a",
          "type": "uint256"
        },
        {
          "internalType": "uint256",
          "name": "b",
          "type": "uint256"
        }
      ],
      "name": "sub",
      "outputs": [],
      "stateMutability": "nonpayable",
      "type": "function"
    },
    {
      "inputs": [
        {
          "internalType": "uint256",
          "name": "a",
          "type": "uint256"
        },
        {
          "internalType": "uint256",
          "name": "b",
          "type": "uint256"
        }
      ],
      "name": "mul",
      "outputs": [],
      "stateMutability": "nonpayable",
      "type": "function"
    },
    {
      "inputs": [
        {
          "internalType": "uint256",
          "name": "a",
          "type": "uint256"
        },
        {
          "internalType": "uint256",
          "name": "b",
          "type": "uint256"
        }
      ],
      "name": "div",
      "outputs": [],
      "stateMutability": "nonpayable",
      "type": "function"
    },
    {
      "inputs": [],
      "name": "result",
      "outputs": [
        {
          "internalType": "uint256",
          "name": "",
          "type": "uint256"
        }
      ],
      "stateMutability": "view",
      "type": "function",
      "constant": true
    }
  ],
  "bytecode": "0x608060405234801561001057600080fd5b50610556806100206000396000f3fe608060405234801561001057600080fd5b50600436106100575760003560e01c8063653721471461005c578063771602f71461007a578063a391c15b146100b2578063b67d77c5146100ea578063c8a4ac9c14610122575b600080fd5b61006461015a565b6040518082815260200191505060405180910390f35b6100b06004803603604081101561009057600080fd5b810190808035906020019092919080359060200190929190505050610163565b005b6100e8600480360360408110156100c857600080fd5b810190808035906020019092919080359060200190929190505050610180565b005b6101206004803603604081101561010057600080fd5b81019080803590602001909291908035906020019092919050505061019d565b005b6101586004803603604081101561013857600080fd5b8101908080359060200190929190803590602001909291905050506101ba565b005b60008054905090565b61017681836101d790919063ffffffff16565b6000819055505050565b610193818361025f90919063ffffffff16565b6000819055505050565b6101b081836102a990919063ffffffff16565b6000819055505050565b6101cd81836102f390919063ffffffff16565b6000819055505050565b600080828401905083811015610255576040517f08c379a000000000000000000000000000000000000000000000000000000000815260040180806020018281038252601b8152602001807f536166654d6174683a206164646974696f6e206f766572666c6f77000000000081525060200191505060405180910390fd5b8091505092915050565b60006102a183836040518060400160405280601a81526020017f536166654d6174683a206469766973696f6e206279207a65726f000000000000815250610379565b905092915050565b60006102eb83836040518060400160405280601e81526020017f536166654d6174683a207375627472616374696f6e206f766572666c6f77000081525061043f565b905092915050565b6000808314156103065760009050610373565b600082840290508284828161031757fe5b041461036e576040517f08c379a00000000000000000000000000000000000000000000000000000000081526004018080602001828103825260218152602001806105006021913960400191505060405180910390fd5b809150505b92915050565b60008083118290610425576040517f08c379a00000000000000000000000000000000000000000000000000000000081526004018080602001828103825283818151815260200191508051906020019080838360005b838110156103ea5780820151818401526020810190506103cf565b50505050905090810190601f1680156104175780820380516001836020036101000a031916815260200191505b509250505060405180910390fd5b50600083858161043157fe5b049050809150509392505050565b60008383111582906104ec576040517f08c379a00000000000000000000000000000000000000000000000000000000081526004018080602001828103825283818151815260200191508051906020019080838360005b838110156104b1578082015181840152602081019050610496565b50505050905090810190601f1680156104de5780820380516001836020036101000a031916815260200191505b509250505060405180910390fd5b506000838503905080915050939250505056fe536166654d6174683a206d756c7469706c69636174696f6e206f766572666c6f77a2646970667358221220119bef8529fd9dc4a1ea44607f348b0289dac0f28e693fa490d9d07bc96b917764736f6c634300060c0033",
  "immutableReferences": {},
  "source": "// SPDX-License-Identifier: MIT\npragma solidity ^0.6.0;\n\nimport \"@openzeppelin/contracts/math/SafeMath.sol\";\n\ncontract Calculator {\n  // https://itnext.io/libraries-and-using-for-in-solidity-5c954da04128\n  using SafeMath for uint256;\n  uint256 c;\n\n  function add(uint256 a, uint256 b) public {\n    c = a.add(b);\n  }\n\n  function sub(uint256 a, uint256 b) public {\n    c = a.sub(b);\n  }\n\n  function mul(uint256 a, uint256 b) public {\n    c = a.mul(b);\n  }\n\n  function div(uint256 a, uint256 b) public {\n    c = a.div(b);\n  }\n\n  function result() public view returns (uint256) {\n    return c;\n  }\n}\n",
  "sourcePath": "/home/min/Projects/tenderly-play/contracts/Calculator.sol",
  "compiler": {
    "name": "solc",
    "version": "0.6.12+commit.27d51765.Emscripten.clang"
  },
  "schemaVersion": "3.1.0",
  "updatedAt": "2020-07-23T12:21:43.775Z",
  "networkType": "ethereum",
  "devdoc": {
    "kind": "dev",
    "methods": {},
    "version": 1
  },
  "userdoc": {
    "kind": "user",
    "methods": {},
    "version": 1
  }
}