{
  "contractName": "TennisMatch",
  "abi": [
    {
      "inputs": [],
      "stateMutability": "nonpayable",
      "type": "constructor"
    },
    {
      "inputs": [],
      "name": "owner",
      "outputs": [
        {
          "internalType": "address",
          "name": "",
          "type": "address"
        }
      ],
      "stateMutability": "view",
      "type": "function",
      "constant": true
    },
    {
      "inputs": [],
      "name": "playerAGamesWon",
      "outputs": [
        {
          "internalType": "uint8",
          "name": "",
          "type": "uint8"
        }
      ],
      "stateMutability": "view",
      "type": "function",
      "constant": true
    },
    {
      "inputs": [],
      "name": "playerAScore",
      "outputs": [
        {
          "internalType": "uint8",
          "name": "",
          "type": "uint8"
        }
      ],
      "stateMutability": "view",
      "type": "function",
      "constant": true
    },
    {
      "inputs": [],
      "name": "playerBGamesWon",
      "outputs": [
        {
          "internalType": "uint8",
          "name": "",
          "type": "uint8"
        }
      ],
      "stateMutability": "view",
      "type": "function",
      "constant": true
    },
    {
      "inputs": [],
      "name": "playerBScore",
      "outputs": [
        {
          "internalType": "uint8",
          "name": "",
          "type": "uint8"
        }
      ],
      "stateMutability": "view",
      "type": "function",
      "constant": true
    },
    {
      "inputs": [
        {
          "internalType": "uint8",
          "name": "player",
          "type": "uint8"
        }
      ],
      "name": "addPoint",
      "outputs": [],
      "stateMutability": "nonpayable",
      "type": "function"
    }
  ],
  "bytecode": "0x608060405234801561001057600080fd5b50336000806101000a81548173ffffffffffffffffffffffffffffffffffffffff021916908373ffffffffffffffffffffffffffffffffffffffff1602179055506104bf806100606000396000f3fe608060405234801561001057600080fd5b50600436106100625760003560e01c806345ad0c1c14610067578063664caaee146100885780638da5cb5b146100a9578063cfa18290146100dd578063deecbd3a146100fe578063e3c8284f1461012f575b600080fd5b61006f610150565b604051808260ff16815260200191505060405180910390f35b610090610163565b604051808260ff16815260200191505060405180910390f35b6100b1610176565b604051808273ffffffffffffffffffffffffffffffffffffffff16815260200191505060405180910390f35b6100e561019a565b604051808260ff16815260200191505060405180910390f35b61012d6004803603602081101561011457600080fd5b81019080803560ff1690602001909291905050506101ad565b005b610137610389565b604051808260ff16815260200191505060405180910390f35b600060149054906101000a900460ff1681565b600060159054906101000a900460ff1681565b60008054906101000a900473ffffffffffffffffffffffffffffffffffffffff1681565b600060169054906101000a900460ff1681565b60008054906101000a900473ffffffffffffffffffffffffffffffffffffffff1673ffffffffffffffffffffffffffffffffffffffff163373ffffffffffffffffffffffffffffffffffffffff161461026e576040517f08c379a000000000000000000000000000000000000000000000000000000000815260040180806020018281038252600d8152602001807f4d757374206265206f776e65720000000000000000000000000000000000000081525060200191505060405180910390fd5b60018160ff1611156102e8576040517f08c379a000000000000000000000000000000000000000000000000000000000815260040180806020018281038252600e8152602001807f496e76616c696420506c6179657200000000000000000000000000000000000081525060200191505060405180910390fd5b6000808260ff16141561033a57600f600060148282829054906101000a900460ff160192506101000a81548160ff021916908360ff160217905550600060149054906101000a900460ff16905061037b565b600f600060168282829054906101000a900460ff160192506101000a81548160ff021916908360ff160217905550600060169054906101000a900460ff1690505b610385828261039c565b5050565b600060179054906101000a900460ff1681565b60008260ff161480156103b2575060328160ff16115b156103f6576000601581819054906101000a900460ff168092919060010191906101000a81548160ff021916908360ff160217905550506103f1610451565b61044d565b60018260ff1614801561040c575060328160ff16115b1561044c576000601781819054906101000a900460ff168092919060010191906101000a81548160ff021916908360ff1602179055505061044b610451565b5b5b5050565b60008060146101000a81548160ff021916908360ff16021790555060008060166101000a81548160ff021916908360ff16021790555056fea26469706673582212206ed33e66dd570390c6af7349defc0f6cb1dd24ce7eb0d0cd3d383592d1b709ce64736f6c634300060c0033",
  "immutableReferences": {},
  "source": "// SPDX-License-Identifier: MIT\npragma solidity ^0.6.0;\n\ncontract TennisMatch {\n  address public owner;\n\n  uint8 public playerAScore;\n  uint8 public playerAGamesWon;\n\n  uint8 public playerBScore;\n  uint8 public playerBGamesWon;\n\n  constructor() public {\n    owner = msg.sender;\n  }\n\n  modifier onlyOwner() {\n    require(msg.sender == owner, \"Must be owner\");\n    _;\n  }\n\n  function addPoint(uint8 player) public onlyOwner {\n    require(player <= 1, \"Invalid Player\");\n    uint8 newScore;\n\n    if (player == 0) {\n      playerAScore += 15;\n      newScore = playerAScore;\n    } else {\n      playerBScore += 15;\n      newScore = playerBScore;\n    }\n\n    _maybeIncrementGame(player, newScore);\n  }\n\n  function _maybeIncrementGame(uint8 player, uint8 newScore) private {\n    if (player == 0 && newScore > 50) {\n      playerAGamesWon++;\n      _resetScore();\n    } else if (player == 1 && newScore > 50) {\n      playerBGamesWon++;\n      _resetScore();\n    }\n  }\n\n  function _resetScore() private {\n    playerAScore = 0;\n    playerBScore = 0;\n  }\n\n  function _resetGame() private {\n    playerAGamesWon = 0;\n    playerBGamesWon = 0;\n    _resetScore();\n  }\n}\n",
  "sourcePath": "/home/min/Projects/tenderly-play/contracts/TennisMatch.sol",
  "compiler": {
    "name": "solc",
    "version": "0.6.12+commit.27d51765.Emscripten.clang"
  },
  "schemaVersion": "3.1.0",
  "updatedAt": "2020-07-23T12:22:31.670Z",
  "networkType": "ethereum",
  "devdoc": {
    "kind": "dev",
    "methods": {},
    "version": 1
  },
  "userdoc": {
    "kind": "user",
    "methods": {},
    "version": 1
  }
}